{
  "contractName": "Referendum",
  "abi": [
    {
      "constant": true,
      "inputs": [
        {
          "name": "",
          "type": "uint256"
        }
      ],
      "name": "features",
      "outputs": [
        {
          "name": "id",
          "type": "uint256"
        },
        {
          "name": "name",
          "type": "string"
        },
        {
          "name": "expirytime",
          "type": "uint256"
        },
        {
          "name": "voteCount",
          "type": "uint256"
        }
      ],
      "payable": false,
      "stateMutability": "view",
      "type": "function"
    },
    {
      "constant": true,
      "inputs": [
        {
          "name": "",
          "type": "address"
        }
      ],
      "name": "voters",
      "outputs": [
        {
          "name": "",
          "type": "bool"
        }
      ],
      "payable": false,
      "stateMutability": "view",
      "type": "function"
    },
    {
      "constant": true,
      "inputs": [],
      "name": "featuresCount",
      "outputs": [
        {
          "name": "",
          "type": "uint256"
        }
      ],
      "payable": false,
      "stateMutability": "view",
      "type": "function"
    },
    {
      "inputs": [],
      "payable": false,
      "stateMutability": "nonpayable",
      "type": "constructor"
    },
    {
      "anonymous": false,
      "inputs": [
        {
          "indexed": true,
          "name": "_featureId",
          "type": "uint256"
        }
      ],
      "name": "votedEvent",
      "type": "event"
    },
    {
      "constant": false,
      "inputs": [
        {
          "name": "_featureId",
          "type": "uint256"
        }
      ],
      "name": "vote",
      "outputs": [],
      "payable": false,
      "stateMutability": "nonpayable",
      "type": "function"
    }
  ],
  "bytecode": "0x608060405234801561001057600080fd5b506100606040805190810160405280600981526020017f4e657720466f6e74730000000000000000000000000000000000000000000000815250600261023f640100000000026401000000009004565b6100af6040805190810160405280600681526020017f5375727665790000000000000000000000000000000000000000000000000000815250600361023f640100000000026401000000009004565b6100fe6040805190810160405280600381526020017f4d61700000000000000000000000000000000000000000000000000000000000815250600561023f640100000000026401000000009004565b61014d6040805190810160405280600c81526020017f526964652053686172696e670000000000000000000000000000000000000000815250600561023f640100000000026401000000009004565b61019c6040805190810160405280600a81526020017f566f74652054696d657200000000000000000000000000000000000000000000815250600161023f640100000000026401000000009004565b6101eb6040805190810160405280600c81526020017f54562053747265616d696e670000000000000000000000000000000000000000815250600761023f640100000000026401000000009004565b61023a6040805190810160405280601381526020017f416666696c69617465204d61726b6574696e6700000000000000000000000000815250600761023f640100000000026401000000009004565b610372565b600260008154809291906001019190505550608060405190810160405280600254815260200183815260200182815260200160008152506001600060025481526020019081526020016000206000820151816000015560208201518160010190805190602001906102b19291906102cd565b5060408201518160020155606082015181600301559050505050565b828054600181600116156101000203166002900490600052602060002090601f016020900481019282601f1061030e57805160ff191683800117855561033c565b8280016001018555821561033c579182015b8281111561033b578251825591602001919060010190610320565b5b509050610349919061034d565b5090565b61036f91905b8082111561036b576000816000905550600101610353565b5090565b90565b610411806103816000396000f300608060405260043610610062576000357c0100000000000000000000000000000000000000000000000000000000900463ffffffff1680630121b93f146100675780638ede6f9f14610094578063a3ec138d1461014f578063b318340d146101aa575b600080fd5b34801561007357600080fd5b50610092600480360381019080803590602001909291905050506101d5565b005b3480156100a057600080fd5b506100bf600480360381019080803590602001909291905050506102f7565b6040518085815260200180602001848152602001838152602001828103825285818151815260200191508051906020019080838360005b838110156101115780820151818401526020810190506100f6565b50505050905090810190601f16801561013e5780820380516001836020036101000a031916815260200191505b509550505050505060405180910390f35b34801561015b57600080fd5b50610190600480360381019080803573ffffffffffffffffffffffffffffffffffffffff1690602001909291905050506103bf565b604051808215151515815260200191505060405180910390f35b3480156101b657600080fd5b506101bf6103df565b6040518082815260200191505060405180910390f35b6000803373ffffffffffffffffffffffffffffffffffffffff1673ffffffffffffffffffffffffffffffffffffffff16815260200190815260200160002060009054906101000a900460ff1615151561022d57600080fd5b60008111801561023f57506002548111155b151561024a57600080fd5b60016000803373ffffffffffffffffffffffffffffffffffffffff1673ffffffffffffffffffffffffffffffffffffffff16815260200190815260200160002060006101000a81548160ff0219169083151502179055506001600082815260200190815260200160002060030160008154809291906001019190505550807ffff3c900d938d21d0990d786e819f29b8d05c1ef587b462b939609625b684b1660405160405180910390a250565b6001602052806000526040600020600091509050806000015490806001018054600181600116156101000203166002900480601f0160208091040260200160405190810160405280929190818152602001828054600181600116156101000203166002900480156103a95780601f1061037e576101008083540402835291602001916103a9565b820191906000526020600020905b81548152906001019060200180831161038c57829003601f168201915b5050505050908060020154908060030154905084565b60006020528060005260406000206000915054906101000a900460ff1681565b600254815600a165627a7a72305820ba4746ee7055d3fb96bf8dfba72101d4f1c170cae1c996f4d26c7d9833bb5d720029",
  "source": "pragma solidity 0.4.24;\n\ncontract Referendum {\n    // Model a Feature\n    struct Feature {\n        uint id;\n        string name;\n\tuint expirytime;\n        uint voteCount;\n    }\n\n    // Store accounts that have voted\n    mapping(address => bool) public voters;\n    // Store Features\n    // Fetch Feature\n    mapping(uint => Feature) public features;\n    // Store Feature Count\n    uint public featuresCount;\n\n    // voted event\n    event votedEvent (\n        uint indexed _featureId\n    );\n\n    function Referendum () public {\n        addFeature(\"New Fonts\", 2);\n\taddFeature(\"Survey\", 3);\n        addFeature(\"Map\", 5);\n\taddFeature(\"Ride Sharing\", 5);\n\taddFeature(\"Vote Timer\", 1);\n\taddFeature(\"TV Streaming\", 7);\n\taddFeature(\"Affiliate Marketing\", 7);\n    }\n\n    function addFeature (string _name, uint _expirytime) private {\n        featuresCount++;\n        features[featuresCount] = Feature(featuresCount, _name, _expirytime, 0);\n    }\n\n    function vote (uint _featureId) public {\n        // require that they haven't voted before\n        require(!voters[msg.sender]);\n\n        // require a valid feature\n        require(_featureId > 0 && _featureId <= featuresCount);\n\n        // record that voter has voted\n        voters[msg.sender] = true;\n\n        // update feature vote Count\n        features[_featureId].voteCount ++;\n\n        // trigger voted event\n        votedEvent(_featureId);\n    }\n}\n",
  "sourcePath": "/home/vijayagoswami/referendum/contracts/Referendum.sol",
  "compiler": {
    "name": "solc",
    "version": "0.4.24+commit.e67f0147.Emscripten.clang"
  },
  "schemaVersion": "2.0.1",
  "updatedAt": "2018-11-28T20:33:04.315Z"
}